{
  "contractName": "MarketPlaceContract",
  "abi": [
    {
      "inputs": [],
      "stateMutability": "nonpayable",
      "type": "constructor"
    },
    {
      "anonymous": false,
      "inputs": [
        {
          "indexed": false,
          "internalType": "address",
          "name": "nftContract",
          "type": "address"
        },
        {
          "indexed": false,
          "internalType": "uint256",
          "name": "tokenId",
          "type": "uint256"
        },
        {
          "indexed": false,
          "internalType": "address",
          "name": "seller",
          "type": "address"
        },
        {
          "indexed": false,
          "internalType": "address",
          "name": "owner",
          "type": "address"
        },
        {
          "indexed": false,
          "internalType": "uint256",
          "name": "price",
          "type": "uint256"
        }
      ],
      "name": "NFTListed",
      "type": "event"
    },
    {
      "anonymous": false,
      "inputs": [
        {
          "indexed": false,
          "internalType": "address",
          "name": "nftContract",
          "type": "address"
        },
        {
          "indexed": false,
          "internalType": "uint256",
          "name": "tokenId",
          "type": "uint256"
        },
        {
          "indexed": false,
          "internalType": "address",
          "name": "seller",
          "type": "address"
        },
        {
          "indexed": false,
          "internalType": "address",
          "name": "owner",
          "type": "address"
        },
        {
          "indexed": false,
          "internalType": "uint256",
          "name": "price",
          "type": "uint256"
        }
      ],
      "name": "NFTSold",
      "type": "event"
    },
    {
      "inputs": [],
      "name": "LISTING_FEE",
      "outputs": [
        {
          "internalType": "uint256",
          "name": "",
          "type": "uint256"
        }
      ],
      "stateMutability": "view",
      "type": "function",
      "constant": true
    },
    {
      "inputs": [
        {
          "internalType": "address",
          "name": "_nftContract",
          "type": "address"
        },
        {
          "internalType": "uint256",
          "name": "_tokenId",
          "type": "uint256"
        },
        {
          "internalType": "uint256",
          "name": "_price",
          "type": "uint256"
        }
      ],
      "name": "listNft",
      "outputs": [],
      "stateMutability": "payable",
      "type": "function",
      "payable": true
    },
    {
      "inputs": [
        {
          "internalType": "address",
          "name": "_nftContract",
          "type": "address"
        },
        {
          "internalType": "uint256",
          "name": "_tokenId",
          "type": "uint256"
        }
      ],
      "name": "buyNft",
      "outputs": [],
      "stateMutability": "payable",
      "type": "function",
      "payable": true
    },
    {
      "inputs": [
        {
          "internalType": "address",
          "name": "_nftContract",
          "type": "address"
        },
        {
          "internalType": "uint256",
          "name": "_tokenId",
          "type": "uint256"
        },
        {
          "internalType": "uint256",
          "name": "_price",
          "type": "uint256"
        }
      ],
      "name": "resellNft",
      "outputs": [],
      "stateMutability": "payable",
      "type": "function",
      "payable": true
    },
    {
      "inputs": [],
      "name": "getListingFee",
      "outputs": [
        {
          "internalType": "uint256",
          "name": "",
          "type": "uint256"
        }
      ],
      "stateMutability": "view",
      "type": "function",
      "constant": true
    },
    {
      "inputs": [],
      "name": "getListedNfts",
      "outputs": [
        {
          "components": [
            {
              "internalType": "address",
              "name": "nftContract",
              "type": "address"
            },
            {
              "internalType": "uint256",
              "name": "tokenId",
              "type": "uint256"
            },
            {
              "internalType": "address payable",
              "name": "seller",
              "type": "address"
            },
            {
              "internalType": "address payable",
              "name": "owner",
              "type": "address"
            },
            {
              "internalType": "uint256",
              "name": "price",
              "type": "uint256"
            },
            {
              "internalType": "bool",
              "name": "listed",
              "type": "bool"
            }
          ],
          "internalType": "struct MarketPlaceContract.NFT[]",
          "name": "",
          "type": "tuple[]"
        }
      ],
      "stateMutability": "view",
      "type": "function",
      "constant": true
    },
    {
      "inputs": [],
      "name": "getMyNfts",
      "outputs": [
        {
          "components": [
            {
              "internalType": "address",
              "name": "nftContract",
              "type": "address"
            },
            {
              "internalType": "uint256",
              "name": "tokenId",
              "type": "uint256"
            },
            {
              "internalType": "address payable",
              "name": "seller",
              "type": "address"
            },
            {
              "internalType": "address payable",
              "name": "owner",
              "type": "address"
            },
            {
              "internalType": "uint256",
              "name": "price",
              "type": "uint256"
            },
            {
              "internalType": "bool",
              "name": "listed",
              "type": "bool"
            }
          ],
          "internalType": "struct MarketPlaceContract.NFT[]",
          "name": "",
          "type": "tuple[]"
        }
      ],
      "stateMutability": "view",
      "type": "function",
      "constant": true
    },
    {
      "inputs": [],
      "name": "getMyListedNfts",
      "outputs": [
        {
          "components": [
            {
              "internalType": "address",
              "name": "nftContract",
              "type": "address"
            },
            {
              "internalType": "uint256",
              "name": "tokenId",
              "type": "uint256"
            },
            {
              "internalType": "address payable",
              "name": "seller",
              "type": "address"
            },
            {
              "internalType": "address payable",
              "name": "owner",
              "type": "address"
            },
            {
              "internalType": "uint256",
              "name": "price",
              "type": "uint256"
            },
            {
              "internalType": "bool",
              "name": "listed",
              "type": "bool"
            }
          ],
          "internalType": "struct MarketPlaceContract.NFT[]",
          "name": "",
          "type": "tuple[]"
        }
      ],
      "stateMutability": "view",
      "type": "function",
      "constant": true
    }
  ],
  "bytecode": "0x6080604052655af3107a400060035534801561001a57600080fd5b50600160008190555033600460006101000a81548173ffffffffffffffffffffffffffffffffffffffff021916908373ffffffffffffffffffffffffffffffffffffffff160217905550611ca6806100736000396000f3fe60806040526004361061007b5760003560e01c80634ddf4f8f1161004e5780634ddf4f8f1461011d5780638d6cb3fb14610139578063b8fe6abe14610164578063c922b17c1461018f5761007b565b8063047b07bf146100805780631f4cc4db146100ab5780632b86ae38146100d657806334f5b62414610101575b600080fd5b34801561008c57600080fd5b506100956101ab565b6040516100a29190611833565b60405180910390f35b3480156100b757600080fd5b506100c06104e0565b6040516100cd9190611833565b60405180910390f35b3480156100e257600080fd5b506100eb610885565b6040516100f891906118f5565b60405180910390f35b61011b600480360381019061011691906114c3565b61088b565b005b61013760048036038101906101329190611483565b610ae9565b005b34801561014557600080fd5b5061014e610dc2565b60405161015b9190611833565b60405180910390f35b34801561017057600080fd5b5061017961102a565b60405161018691906118f5565b60405180910390f35b6101a960048036038101906101a491906114c3565b611034565b005b606060006101b9600261135f565b90506000805b8281101561025f573373ffffffffffffffffffffffffffffffffffffffff16600560006001846101ef919061195a565b815260200190815260200160002060030160009054906101000a900473ffffffffffffffffffffffffffffffffffffffff1673ffffffffffffffffffffffffffffffffffffffff16141561024c57818061024890611a74565b9250505b808061025790611a74565b9150506101bf565b5060008167ffffffffffffffff81111561027c5761027b611b1b565b5b6040519080825280602002602001820160405280156102b557816020015b6102a26113df565b81526020019060019003908161029a5790505b5090506000805b848110156104d5573373ffffffffffffffffffffffffffffffffffffffff16600560006001846102ec919061195a565b815260200190815260200160002060030160009054906101000a900473ffffffffffffffffffffffffffffffffffffffff1673ffffffffffffffffffffffffffffffffffffffff1614156104c2576005600060018361034b919061195a565b81526020019081526020016000206040518060c00160405290816000820160009054906101000a900473ffffffffffffffffffffffffffffffffffffffff1673ffffffffffffffffffffffffffffffffffffffff1673ffffffffffffffffffffffffffffffffffffffff168152602001600182015481526020016002820160009054906101000a900473ffffffffffffffffffffffffffffffffffffffff1673ffffffffffffffffffffffffffffffffffffffff1673ffffffffffffffffffffffffffffffffffffffff1681526020016003820160009054906101000a900473ffffffffffffffffffffffffffffffffffffffff1673ffffffffffffffffffffffffffffffffffffffff1673ffffffffffffffffffffffffffffffffffffffff168152602001600482015481526020016005820160009054906101000a900460ff1615151515815250508383815181106104a8576104a7611aec565b5b602002602001018190525081806104be90611a74565b9250505b80806104cd90611a74565b9150506102bc565b508194505050505090565b606060006104ee600261135f565b90506000805b828110156105cc573373ffffffffffffffffffffffffffffffffffffffff1660056000600184610524919061195a565b815260200190815260200160002060020160009054906101000a900473ffffffffffffffffffffffffffffffffffffffff1673ffffffffffffffffffffffffffffffffffffffff161480156105a5575060056000600183610585919061195a565b815260200190815260200160002060050160009054906101000a900460ff165b156105b95781806105b590611a74565b9250505b80806105c490611a74565b9150506104f4565b5060008167ffffffffffffffff8111156105e9576105e8611b1b565b5b60405190808252806020026020018201604052801561062257816020015b61060f6113df565b8152602001906001900390816106075790505b5090506000805b8481101561087a573373ffffffffffffffffffffffffffffffffffffffff1660056000600184610659919061195a565b815260200190815260200160002060020160009054906101000a900473ffffffffffffffffffffffffffffffffffffffff1673ffffffffffffffffffffffffffffffffffffffff161480156106da5750600560006001836106ba919061195a565b815260200190815260200160002060050160009054906101000a900460ff165b1561086757600560006001836106f0919061195a565b81526020019081526020016000206040518060c00160405290816000820160009054906101000a900473ffffffffffffffffffffffffffffffffffffffff1673ffffffffffffffffffffffffffffffffffffffff1673ffffffffffffffffffffffffffffffffffffffff168152602001600182015481526020016002820160009054906101000a900473ffffffffffffffffffffffffffffffffffffffff1673ffffffffffffffffffffffffffffffffffffffff1673ffffffffffffffffffffffffffffffffffffffff1681526020016003820160009054906101000a900473ffffffffffffffffffffffffffffffffffffffff1673ffffffffffffffffffffffffffffffffffffffff1673ffffffffffffffffffffffffffffffffffffffff168152602001600482015481526020016005820160009054906101000a900460ff16151515158152505083838151811061084d5761084c611aec565b5b6020026020010181905250818061086390611a74565b9250505b808061087290611a74565b915050610629565b508194505050505090565b60035481565b600260005414156108d1576040517f08c379a00000000000000000000000000000000000000000000000000000000081526004016108c8906118b5565b60405180910390fd5b60026000819055506000811161091c576040517f08c379a0000000000000000000000000000000000000000000000000000000008152600401610913906118d5565b60405180910390fd5b6003543414610960576040517f08c379a000000000000000000000000000000000000000000000000000000000815260040161095790611895565b60405180910390fd5b8273ffffffffffffffffffffffffffffffffffffffff166323b872dd3330856040518463ffffffff1660e01b815260040161099d93929190611756565b600060405180830381600087803b1580156109b757600080fd5b505af11580156109cb573d6000803e3d6000fd5b505050506000600560008481526020019081526020016000209050338160020160006101000a81548173ffffffffffffffffffffffffffffffffffffffff021916908373ffffffffffffffffffffffffffffffffffffffff160217905550308160030160006101000a81548173ffffffffffffffffffffffffffffffffffffffff021916908373ffffffffffffffffffffffffffffffffffffffff16021790555060018160050160006101000a81548160ff021916908315150217905550818160040181905550610a9c600161136d565b7fa0c6c0d02d86fdacecbaa5fdf5894bab204e31a778250474108540733a9b8d198484333086604051610ad39594939291906117e0565b60405180910390a1506001600081905550505050565b60026000541415610b2f576040517f08c379a0000000000000000000000000000000000000000000000000000000008152600401610b26906118b5565b60405180910390fd5b600260008190555060006005600083815260200190815260200160002090508060040154341015610b95576040517f08c379a0000000000000000000000000000000000000000000000000000000008152600401610b8c90611875565b60405180910390fd5b60003390508160020160009054906101000a900473ffffffffffffffffffffffffffffffffffffffff1673ffffffffffffffffffffffffffffffffffffffff166108fc349081150290604051600060405180830381858888f19350505050158015610c04573d6000803e3d6000fd5b508373ffffffffffffffffffffffffffffffffffffffff166323b872dd308385600101546040518463ffffffff1660e01b8152600401610c469392919061171f565b600060405180830381600087803b158015610c6057600080fd5b505af1158015610c74573d6000803e3d6000fd5b50505050600460009054906101000a900473ffffffffffffffffffffffffffffffffffffffff1673ffffffffffffffffffffffffffffffffffffffff166108fc6003549081150290604051600060405180830381858888f19350505050158015610ce2573d6000803e3d6000fd5b50808260030160006101000a81548173ffffffffffffffffffffffffffffffffffffffff021916908373ffffffffffffffffffffffffffffffffffffffff16021790555060008260050160006101000a81548160ff021916908315150217905550610d4d60016113c9565b7f16f1dbd97e6bf646d429ed186cce832f1f7fd9907814293b83181e9970ab7bd28483600101548460020160009054906101000a900473ffffffffffffffffffffffffffffffffffffffff168434604051610dac95949392919061178d565b60405180910390a1505060016000819055505050565b60606000610dd0600261135f565b90506000610dde600161135f565b82610de991906119b0565b905060008167ffffffffffffffff811115610e0757610e06611b1b565b5b604051908082528060200260200182016040528015610e4057816020015b610e2d6113df565b815260200190600190039081610e255790505b5090506000805b8481101561101f5760056000600183610e60919061195a565b815260200190815260200160002060050160009054906101000a900460ff161561100c5760056000600183610e95919061195a565b81526020019081526020016000206040518060c00160405290816000820160009054906101000a900473ffffffffffffffffffffffffffffffffffffffff1673ffffffffffffffffffffffffffffffffffffffff1673ffffffffffffffffffffffffffffffffffffffff168152602001600182015481526020016002820160009054906101000a900473ffffffffffffffffffffffffffffffffffffffff1673ffffffffffffffffffffffffffffffffffffffff1673ffffffffffffffffffffffffffffffffffffffff1681526020016003820160009054906101000a900473ffffffffffffffffffffffffffffffffffffffff1673ffffffffffffffffffffffffffffffffffffffff1673ffffffffffffffffffffffffffffffffffffffff168152602001600482015481526020016005820160009054906101000a900460ff161515151581525050838381518110610ff257610ff1611aec565b5b6020026020010181905250818061100890611a74565b9250505b808061101790611a74565b915050610e47565b508194505050505090565b6000600354905090565b6002600054141561107a576040517f08c379a0000000000000000000000000000000000000000000000000000000008152600401611071906118b5565b60405180910390fd5b6002600081905550600081116110c5576040517f08c379a00000000000000000000000000000000000000000000000000000000081526004016110bc906118d5565b60405180910390fd5b6003543414611109576040517f08c379a000000000000000000000000000000000000000000000000000000000815260040161110090611895565b60405180910390fd5b8273ffffffffffffffffffffffffffffffffffffffff166323b872dd3330856040518463ffffffff1660e01b815260040161114693929190611756565b600060405180830381600087803b15801561116057600080fd5b505af1158015611174573d6000803e3d6000fd5b5050505061118260026113c9565b6040518060c001604052808473ffffffffffffffffffffffffffffffffffffffff1681526020018381526020013373ffffffffffffffffffffffffffffffffffffffff1681526020013073ffffffffffffffffffffffffffffffffffffffff168152602001828152602001600115158152506005600084815260200190815260200160002060008201518160000160006101000a81548173ffffffffffffffffffffffffffffffffffffffff021916908373ffffffffffffffffffffffffffffffffffffffff1602179055506020820151816001015560408201518160020160006101000a81548173ffffffffffffffffffffffffffffffffffffffff021916908373ffffffffffffffffffffffffffffffffffffffff16021790555060608201518160030160006101000a81548173ffffffffffffffffffffffffffffffffffffffff021916908373ffffffffffffffffffffffffffffffffffffffff1602179055506080820151816004015560a08201518160050160006101000a81548160ff0219169083151502179055509050507fa0c6c0d02d86fdacecbaa5fdf5894bab204e31a778250474108540733a9b8d19838333308560405161134a9594939291906117e0565b60405180910390a16001600081905550505050565b600081600001549050919050565b600081600001549050600081116113b9576040517f08c379a00000000000000000000000000000000000000000000000000000000081526004016113b090611855565b60405180910390fd5b6001810382600001819055505050565b6001816000016000828254019250508190555050565b6040518060c00160405280600073ffffffffffffffffffffffffffffffffffffffff16815260200160008152602001600073ffffffffffffffffffffffffffffffffffffffff168152602001600073ffffffffffffffffffffffffffffffffffffffff168152602001600081526020016000151581525090565b60008135905061146881611c42565b92915050565b60008135905061147d81611c59565b92915050565b6000806040838503121561149a57611499611b4a565b5b60006114a885828601611459565b92505060206114b98582860161146e565b9150509250929050565b6000806000606084860312156114dc576114db611b4a565b5b60006114ea86828701611459565b93505060206114fb8682870161146e565b925050604061150c8682870161146e565b9150509250925092565b60006115228383611686565b60c08301905092915050565b61153781611a3e565b82525050565b611546816119f6565b82525050565b611555816119e4565b82525050565b611564816119e4565b82525050565b600061157582611920565b61157f8185611938565b935061158a83611910565b8060005b838110156115bb5781516115a28882611516565b97506115ad8361192b565b92505060018101905061158e565b5085935050505092915050565b6115d181611a08565b82525050565b60006115e4601b83611949565b91506115ef82611b4f565b602082019050919050565b6000611607602683611949565b915061161282611b78565b604082019050919050565b600061162a602083611949565b915061163582611bc7565b602082019050919050565b600061164d601f83611949565b915061165882611bf0565b602082019050919050565b6000611670601c83611949565b915061167b82611c19565b602082019050919050565b60c08201600082015161169c600085018261154c565b5060208201516116af6020850182611701565b5060408201516116c2604085018261153d565b5060608201516116d5606085018261153d565b5060808201516116e86080850182611701565b5060a08201516116fb60a08501826115c8565b50505050565b61170a81611a34565b82525050565b61171981611a34565b82525050565b6000606082019050611734600083018661155b565b611741602083018561152e565b61174e6040830184611710565b949350505050565b600060608201905061176b600083018661155b565b611778602083018561155b565b6117856040830184611710565b949350505050565b600060a0820190506117a2600083018861155b565b6117af6020830187611710565b6117bc604083018661152e565b6117c9606083018561152e565b6117d66080830184611710565b9695505050505050565b600060a0820190506117f5600083018861155b565b6118026020830187611710565b61180f604083018661155b565b61181c606083018561155b565b6118296080830184611710565b9695505050505050565b6000602082019050818103600083015261184d818461156a565b905092915050565b6000602082019050818103600083015261186e816115d7565b9050919050565b6000602082019050818103600083015261188e816115fa565b9050919050565b600060208201905081810360008301526118ae8161161d565b9050919050565b600060208201905081810360008301526118ce81611640565b9050919050565b600060208201905081810360008301526118ee81611663565b9050919050565b600060208201905061190a6000830184611710565b92915050565b6000819050602082019050919050565b600081519050919050565b6000602082019050919050565b600082825260208201905092915050565b600082825260208201905092915050565b600061196582611a34565b915061197083611a34565b9250827fffffffffffffffffffffffffffffffffffffffffffffffffffffffffffffffff038211156119a5576119a4611abd565b5b828201905092915050565b60006119bb82611a34565b91506119c683611a34565b9250828210156119d9576119d8611abd565b5b828203905092915050565b60006119ef82611a14565b9050919050565b6000611a0182611a14565b9050919050565b60008115159050919050565b600073ffffffffffffffffffffffffffffffffffffffff82169050919050565b6000819050919050565b6000611a4982611a50565b9050919050565b6000611a5b82611a62565b9050919050565b6000611a6d82611a14565b9050919050565b6000611a7f82611a34565b91507fffffffffffffffffffffffffffffffffffffffffffffffffffffffffffffffff821415611ab257611ab1611abd565b5b600182019050919050565b7f4e487b7100000000000000000000000000000000000000000000000000000000600052601160045260246000fd5b7f4e487b7100000000000000000000000000000000000000000000000000000000600052603260045260246000fd5b7f4e487b7100000000000000000000000000000000000000000000000000000000600052604160045260246000fd5b600080fd5b7f436f756e7465723a2064656372656d656e74206f766572666c6f770000000000600082015250565b7f4e6f7420656e6f75676820657468657220746f20636f7665722061736b696e6760008201527f2070726963650000000000000000000000000000000000000000000000000000602082015250565b7f4e6f7420656e6f75676820657468657220666f72206c697374696e6720666565600082015250565b7f5265656e7472616e637947756172643a207265656e7472616e742063616c6c00600082015250565b7f5072696365206d757374206265206174206c6561737420312077656900000000600082015250565b611c4b816119e4565b8114611c5657600080fd5b50565b611c6281611a34565b8114611c6d57600080fd5b5056fea26469706673582212200b7cc0e808f3330796fb2ee9c71b5878535ed050a68c659fa481df3ccd62898c64736f6c63430008060033",
  "immutableReferences": {},
  "source": "// SPDX-License-Identifier: MIT\r\npragma solidity ^0.8.6;\r\n\r\nimport \"@openzeppelin/contracts/utils/Counters.sol\";\r\nimport \"@openzeppelin/contracts/token/ERC721/ERC721.sol\";\r\nimport \"@openzeppelin/contracts/security/ReentrancyGuard.sol\";\r\n\r\ncontract MarketPlaceContract is ReentrancyGuard {\r\n  using Counters for Counters.Counter;\r\n  Counters.Counter private _nftsSold;\r\n  Counters.Counter private _nftCount;\r\n  uint256 public LISTING_FEE = 0.0001 ether;\r\n  address payable private _marketOwner;\r\n  mapping(uint256 => NFT) private _idToNFT;\r\n  struct NFT {\r\n    address nftContract;\r\n    uint256 tokenId;\r\n    address payable seller;\r\n    address payable owner;\r\n    uint256 price;\r\n    bool listed;\r\n  }\r\n  event NFTListed(\r\n    address nftContract,\r\n    uint256 tokenId,\r\n    address seller,\r\n    address owner,\r\n    uint256 price\r\n  );\r\n  event NFTSold(\r\n    address nftContract,\r\n    uint256 tokenId,\r\n    address seller,\r\n    address owner,\r\n    uint256 price\r\n  );\r\n\r\n  constructor() {\r\n    _marketOwner = payable(msg.sender);\r\n  }\r\n\r\n  // List the NFT on the marketplace\r\n  function listNft(address _nftContract, uint256 _tokenId, uint256 _price) public payable nonReentrant {\r\n    require(_price > 0, \"Price must be at least 1 wei\");\r\n    require(msg.value == LISTING_FEE, \"Not enough ether for listing fee\");\r\n\r\n    IERC721(_nftContract).transferFrom(msg.sender, address(this), _tokenId);\r\n\r\n    _nftCount.increment();\r\n\r\n    _idToNFT[_tokenId] = NFT(\r\n      _nftContract,\r\n      _tokenId, \r\n      payable(msg.sender),\r\n      payable(address(this)),\r\n      _price,\r\n      true\r\n    );\r\n\r\n    emit NFTListed(_nftContract, _tokenId, msg.sender, address(this), _price);\r\n  }\r\n\r\n  // Buy an NFT\r\n  function buyNft(address _nftContract, uint256 _tokenId) public payable nonReentrant {\r\n    NFT storage nft = _idToNFT[_tokenId];\r\n    require(msg.value >= nft.price, \"Not enough ether to cover asking price\");\r\n\r\n    address payable buyer = payable(msg.sender);\r\n    payable(nft.seller).transfer(msg.value);\r\n    IERC721(_nftContract).transferFrom(address(this), buyer, nft.tokenId);\r\n    _marketOwner.transfer(LISTING_FEE);\r\n    nft.owner = buyer;\r\n    nft.listed = false;\r\n\r\n    _nftsSold.increment();\r\n    emit NFTSold(_nftContract, nft.tokenId, nft.seller, buyer, msg.value);\r\n  }\r\n\r\n  // Resell an NFT purchased from the marketplace\r\n  function resellNft(address _nftContract, uint256 _tokenId, uint256 _price) public payable nonReentrant {\r\n    require(_price > 0, \"Price must be at least 1 wei\");\r\n    require(msg.value == LISTING_FEE, \"Not enough ether for listing fee\");\r\n\r\n    IERC721(_nftContract).transferFrom(msg.sender, address(this), _tokenId);\r\n\r\n    NFT storage nft = _idToNFT[_tokenId];\r\n    nft.seller = payable(msg.sender);\r\n    nft.owner = payable(address(this));\r\n    nft.listed = true;\r\n    nft.price = _price;\r\n\r\n    _nftsSold.decrement();\r\n    emit NFTListed(_nftContract, _tokenId, msg.sender, address(this), _price);\r\n  }\r\n\r\n  function getListingFee() public view returns (uint256) {\r\n    return LISTING_FEE;\r\n  }\r\n\r\n  function getListedNfts() public view returns (NFT[] memory) {\r\n    uint256 nftCount = _nftCount.current();\r\n    uint256 unsoldNftsCount = nftCount - _nftsSold.current();\r\n\r\n    NFT[] memory nfts = new NFT[](unsoldNftsCount);\r\n    uint nftsIndex = 0;\r\n    for (uint i = 0; i < nftCount; i++) {\r\n      if (_idToNFT[i + 1].listed) {\r\n        nfts[nftsIndex] = _idToNFT[i + 1];\r\n        nftsIndex++;\r\n      }\r\n    }\r\n    return nfts;\r\n  }\r\n\r\n  function getMyNfts() public view returns (NFT[] memory) {\r\n    uint nftCount = _nftCount.current();\r\n    uint myNftCount = 0;\r\n    for (uint i = 0; i < nftCount; i++) {\r\n      if (_idToNFT[i + 1].owner == msg.sender) {\r\n        myNftCount++;\r\n      }\r\n    }\r\n\r\n    NFT[] memory nfts = new NFT[](myNftCount);\r\n    uint nftsIndex = 0;\r\n    for (uint i = 0; i < nftCount; i++) {\r\n      if (_idToNFT[i + 1].owner == msg.sender) {\r\n        nfts[nftsIndex] = _idToNFT[i + 1];\r\n        nftsIndex++;\r\n      }\r\n    }\r\n    return nfts;\r\n  }\r\n\r\n  function getMyListedNfts() public view returns (NFT[] memory) {\r\n    uint nftCount = _nftCount.current();\r\n    uint myListedNftCount = 0;\r\n    for (uint i = 0; i < nftCount; i++) {\r\n      if (_idToNFT[i + 1].seller == msg.sender && _idToNFT[i + 1].listed) {\r\n        myListedNftCount++;\r\n      }\r\n    }\r\n\r\n    NFT[] memory nfts = new NFT[](myListedNftCount);\r\n    uint nftsIndex = 0;\r\n    for (uint i = 0; i < nftCount; i++) {\r\n      if (_idToNFT[i + 1].seller == msg.sender && _idToNFT[i + 1].listed) {\r\n        nfts[nftsIndex] = _idToNFT[i + 1];\r\n        nftsIndex++;\r\n      }\r\n    }\r\n    return nfts;\r\n  }\r\n}",
  "sourcePath": "C:\\Users\\hecto\\Desktop\\blockchainproject\\contracts\\MarketPlaceContract.sol",
  "compiler": {
    "name": "solc",
    "version": "0.8.6+commit.11564f7e.Emscripten.clang"
  },
  "schemaVersion": "3.4.7",
  "updatedAt": "2022-06-07T10:25:41.469Z",
  "networkType": "ethereum",
  "devdoc": {
    "kind": "dev",
    "methods": {},
    "version": 1
  },
  "userdoc": {
    "kind": "user",
    "methods": {},
    "version": 1
  }
}