{
  "contractName": "TasksContract",
  "abi": [
    {
      "inputs": [],
      "stateMutability": "nonpayable",
      "type": "constructor"
    },
    {
      "anonymous": false,
      "inputs": [
        {
          "indexed": false,
          "internalType": "uint256",
          "name": "id",
          "type": "uint256"
        },
        {
          "indexed": false,
          "internalType": "string",
          "name": "name",
          "type": "string"
        },
        {
          "indexed": false,
          "internalType": "string",
          "name": "description",
          "type": "string"
        },
        {
          "indexed": false,
          "internalType": "bool",
          "name": "done",
          "type": "bool"
        },
        {
          "indexed": false,
          "internalType": "uint256",
          "name": "createdAt",
          "type": "uint256"
        }
      ],
      "name": "TaskCreated",
      "type": "event"
    },
    {
      "anonymous": false,
      "inputs": [
        {
          "indexed": false,
          "internalType": "uint256",
          "name": "id",
          "type": "uint256"
        },
        {
          "indexed": false,
          "internalType": "bool",
          "name": "done",
          "type": "bool"
        }
      ],
      "name": "TaskToggleDone",
      "type": "event"
    },
    {
      "inputs": [],
      "name": "taskCounter",
      "outputs": [
        {
          "internalType": "uint256",
          "name": "",
          "type": "uint256"
        }
      ],
      "stateMutability": "view",
      "type": "function",
      "constant": true
    },
    {
      "inputs": [
        {
          "internalType": "uint256",
          "name": "",
          "type": "uint256"
        }
      ],
      "name": "tasks",
      "outputs": [
        {
          "internalType": "uint256",
          "name": "id",
          "type": "uint256"
        },
        {
          "internalType": "string",
          "name": "name",
          "type": "string"
        },
        {
          "internalType": "string",
          "name": "description",
          "type": "string"
        },
        {
          "internalType": "bool",
          "name": "done",
          "type": "bool"
        },
        {
          "internalType": "uint256",
          "name": "createdAt",
          "type": "uint256"
        }
      ],
      "stateMutability": "view",
      "type": "function",
      "constant": true
    },
    {
      "inputs": [
        {
          "internalType": "string",
          "name": "_name",
          "type": "string"
        },
        {
          "internalType": "string",
          "name": "_description",
          "type": "string"
        }
      ],
      "name": "createTask",
      "outputs": [],
      "stateMutability": "nonpayable",
      "type": "function"
    },
    {
      "inputs": [
        {
          "internalType": "uint256",
          "name": "_id",
          "type": "uint256"
        }
      ],
      "name": "toogleDone",
      "outputs": [],
      "stateMutability": "nonpayable",
      "type": "function"
    }
  ],
  "bytecode": "0x6080604052600080553480156200001557600080fd5b50620000926040518060400160405280601781526020017f656e7472616461204a312d4643422d457370616e796f6c0000000000000000008152506040518060400160405280601a81526020017f5075657274612031362d46696c6120332d417369656e746f20350000000000008152506200009860201b60201c565b620004d0565b6040518060a00160405280600054815260200183815260200182815260200160001515815260200142815250600160008054815260200190815260200160002060008201518160000155602082015181600101908051906020019062000100929190620001bc565b5060408201518160020190805190602001906200011f929190620001bc565b5060608201518160030160006101000a81548160ff02191690831515021790555060808201518160040155905050600080815480929190620001619062000413565b91905055507f6549102bed7d1bb5ec529ee14e2ca60ffc1f47f66d4cc6ca713220613cc64c25600160005462000198919062000356565b8383600042604051620001b0959493929190620002cf565b60405180910390a15050565b828054620001ca90620003dd565b90600052602060002090601f016020900481019282620001ee57600085556200023a565b82601f106200020957805160ff19168380011785556200023a565b828001600101855582156200023a579182015b82811115620002395782518255916020019190600101906200021c565b5b5090506200024991906200024d565b5090565b5b80821115620002685760008160009055506001016200024e565b5090565b620002778162000391565b82525050565b60006200028a826200033a565b62000296818562000345565b9350620002a8818560208601620003a7565b620002b381620004bf565b840191505092915050565b620002c9816200039d565b82525050565b600060a082019050620002e66000830188620002be565b8181036020830152620002fa81876200027d565b905081810360408301526200031081866200027d565b90506200032160608301856200026c565b620003306080830184620002be565b9695505050505050565b600081519050919050565b600082825260208201905092915050565b600062000363826200039d565b915062000370836200039d565b92508282101562000386576200038562000461565b5b828203905092915050565b60008115159050919050565b6000819050919050565b60005b83811015620003c7578082015181840152602081019050620003aa565b83811115620003d7576000848401525b50505050565b60006002820490506001821680620003f657607f821691505b602082108114156200040d576200040c62000490565b5b50919050565b600062000420826200039d565b91507fffffffffffffffffffffffffffffffffffffffffffffffffffffffffffffffff82141562000456576200045562000461565b5b600182019050919050565b7f4e487b7100000000000000000000000000000000000000000000000000000000600052601160045260246000fd5b7f4e487b7100000000000000000000000000000000000000000000000000000000600052602260045260246000fd5b6000601f19601f8301169050919050565b610b1080620004e06000396000f3fe608060405234801561001057600080fd5b506004361061004c5760003560e01c80631f3d803f14610051578063292a45851461006d57806358671730146100895780638d977672146100a7575b600080fd5b61006b6004803603810190610066919061073e565b6100db565b005b610087600480360381019061008291906106c6565b61032b565b005b610091610445565b60405161009e91906107c2565b60405180910390f35b6100c160048036038101906100bc919061073e565b61044b565b6040516100d2959493929190610806565b60405180910390f35b6000600160008381526020019081526020016000206040518060a00160405290816000820154815260200160018201805461011590610965565b80601f016020809104026020016040519081016040528092919081815260200182805461014190610965565b801561018e5780601f106101635761010080835404028352916020019161018e565b820191906000526020600020905b81548152906001019060200180831161017157829003601f168201915b505050505081526020016002820180546101a790610965565b80601f01602080910402602001604051908101604052809291908181526020018280546101d390610965565b80156102205780601f106101f557610100808354040283529160200191610220565b820191906000526020600020905b81548152906001019060200180831161020357829003601f168201915b505050505081526020016003820160009054906101000a900460ff161515151581526020016004820154815250509050806060015115816060019015159081151581525050806001600084815260200190815260200160002060008201518160000155602082015181600101908051906020019061029f92919061059e565b5060408201518160020190805190602001906102bc92919061059e565b5060608201518160030160006101000a81548160ff021916908315150217905550608082015181600401559050507f389dee00d487dd41dd5bf0f43eeaa5b663b3af022d52368df89d388150295f4582826060015160405161031f9291906107dd565b60405180910390a15050565b6040518060a00160405280600054815260200183815260200182815260200160001515815260200142815250600160008054815260200190815260200160002060008201518160000155602082015181600101908051906020019061039192919061059e565b5060408201518160020190805190602001906103ae92919061059e565b5060608201518160030160006101000a81548160ff021916908315150217905550608082015181600401559050506000808154809291906103ee906109c8565b91905055507f6549102bed7d1bb5ec529ee14e2ca60ffc1f47f66d4cc6ca713220613cc64c25600160005461042391906108d9565b8383600042604051610439959493929190610806565b60405180910390a15050565b60005481565b600160205280600052604060002060009150905080600001549080600101805461047490610965565b80601f01602080910402602001604051908101604052809291908181526020018280546104a090610965565b80156104ed5780601f106104c2576101008083540402835291602001916104ed565b820191906000526020600020905b8154815290600101906020018083116104d057829003601f168201915b50505050509080600201805461050290610965565b80601f016020809104026020016040519081016040528092919081815260200182805461052e90610965565b801561057b5780601f106105505761010080835404028352916020019161057b565b820191906000526020600020905b81548152906001019060200180831161055e57829003601f168201915b5050505050908060030160009054906101000a900460ff16908060040154905085565b8280546105aa90610965565b90600052602060002090601f0160209004810192826105cc5760008555610613565b82601f106105e557805160ff1916838001178555610613565b82800160010185558215610613579182015b828111156106125782518255916020019190600101906105f7565b5b5090506106209190610624565b5090565b5b8082111561063d576000816000905550600101610625565b5090565b600061065461064f8461088c565b610867565b9050828152602081018484840111156106705761066f610aa3565b5b61067b848285610923565b509392505050565b600082601f83011261069857610697610a9e565b5b81356106a8848260208601610641565b91505092915050565b6000813590506106c081610ac3565b92915050565b600080604083850312156106dd576106dc610aad565b5b600083013567ffffffffffffffff8111156106fb576106fa610aa8565b5b61070785828601610683565b925050602083013567ffffffffffffffff81111561072857610727610aa8565b5b61073485828601610683565b9150509250929050565b60006020828403121561075457610753610aad565b5b6000610762848285016106b1565b91505092915050565b6107748161090d565b82525050565b6000610785826108bd565b61078f81856108c8565b935061079f818560208601610932565b6107a881610ab2565b840191505092915050565b6107bc81610919565b82525050565b60006020820190506107d760008301846107b3565b92915050565b60006040820190506107f260008301856107b3565b6107ff602083018461076b565b9392505050565b600060a08201905061081b60008301886107b3565b818103602083015261082d818761077a565b90508181036040830152610841818661077a565b9050610850606083018561076b565b61085d60808301846107b3565b9695505050505050565b6000610871610882565b905061087d8282610997565b919050565b6000604051905090565b600067ffffffffffffffff8211156108a7576108a6610a6f565b5b6108b082610ab2565b9050602081019050919050565b600081519050919050565b600082825260208201905092915050565b60006108e482610919565b91506108ef83610919565b92508282101561090257610901610a11565b5b828203905092915050565b60008115159050919050565b6000819050919050565b82818337600083830152505050565b60005b83811015610950578082015181840152602081019050610935565b8381111561095f576000848401525b50505050565b6000600282049050600182168061097d57607f821691505b6020821081141561099157610990610a40565b5b50919050565b6109a082610ab2565b810181811067ffffffffffffffff821117156109bf576109be610a6f565b5b80604052505050565b60006109d382610919565b91507fffffffffffffffffffffffffffffffffffffffffffffffffffffffffffffffff821415610a0657610a05610a11565b5b600182019050919050565b7f4e487b7100000000000000000000000000000000000000000000000000000000600052601160045260246000fd5b7f4e487b7100000000000000000000000000000000000000000000000000000000600052602260045260246000fd5b7f4e487b7100000000000000000000000000000000000000000000000000000000600052604160045260246000fd5b600080fd5b600080fd5b600080fd5b600080fd5b6000601f19601f8301169050919050565b610acc81610919565b8114610ad757600080fd5b5056fea2646970667358221220aff0fe6b350a404059b5838ee4062aa4091f2564bbd16e38d3da237114afe1c764736f6c63430008060033",
  "immutableReferences": {},
  "source": "// SPDX-License-Identifier: MIT\r\npragma solidity ^0.8.6;\r\n\r\ncontract TasksContract {\r\n\r\n    uint public taskCounter = 0;\r\n\r\n    constructor(){\r\n        createTask(\"entrada J1-FCB-Espanyol\", \"Puerta 16-Fila 3-Asiento 5\");\r\n    }\r\n\r\n    //create event to taskCreated\r\n    event TaskCreated(\r\n        uint id,\r\n        string name,\r\n        string description,\r\n        bool done,\r\n        uint createdAt\r\n    );\r\n\r\n    //create event to taskDone\r\n    event TaskToggleDone(uint id, bool done);\r\n\r\n    //new type of data structure\r\n    //this part not call to the contract\r\n    struct Task{\r\n        uint256 id;\r\n        string name;\r\n        string description;\r\n        bool done;\r\n        uint256 createdAt;\r\n    }\r\n\r\n    //create typical CRUD methods\r\n\r\n    //key, value, each task contains a unique id\r\n    //CRUD getTaskById\r\n    mapping(uint256 => Task) public tasks;\r\n\r\n    //example of a task\r\n    // tasks[\r\n    //     0: {\r\n    //         id: 0,\r\n    //         name: \"Task 1\",\r\n    //         description: \"This is the first task\",\r\n    //         done: false,\r\n    //         createdAt: 0\r\n    //     },\r\n    //     }\r\n    // ]\r\n\r\n    //CRUD createTask\r\n    function createTask(string memory _name, string memory _description) public {\r\n        tasks[taskCounter] = Task(taskCounter, _name, _description, false, block.timestamp);\r\n        taskCounter++;\r\n        //create a event\r\n        emit TaskCreated(taskCounter-1, _name, _description, false, block.timestamp);\r\n    }\r\n\r\n    //CRUD updateTask\r\n    function toogleDone(uint256 _id) public {\r\n        //type of data, memory and variable\r\n        Task memory _task = tasks[_id];\r\n        _task.done = !_task.done;\r\n        tasks[_id] = _task;\r\n        emit TaskToggleDone(_id, _task.done);\r\n    }\r\n}",
  "sourcePath": "C:\\Users\\hecto\\Desktop\\blockchainproject\\contracts\\TasksContract.sol",
  "compiler": {
    "name": "solc",
    "version": "0.8.6+commit.11564f7e.Emscripten.clang"
  },
  "schemaVersion": "3.4.7",
  "updatedAt": "2022-06-06T15:04:15.740Z",
  "networkType": "ethereum",
  "devdoc": {
    "kind": "dev",
    "methods": {},
    "version": 1
  },
  "userdoc": {
    "kind": "user",
    "methods": {},
    "version": 1
  }
}